:03000000020006F5
:03005F0002000399
:0300030002006296
:2000620074EF55B24410F5B253B1EF74FE55964401F5965395FE900001E4F043BA8090FEA3
:20008200B1E4F090FECCF0A3F090FEC87468F090FECC7405F090FED2E4F0A3743FF0A3A357
:2000A200E4F0A37420F090FED0E4F0A3F090FEB2E0FF74FC5F4401F015827401F090FEDDF4
:2000C20003F090FEC023F0D2AFC2B4900001E090018893FF7E00BE100050357D00ED9001EB
:2000E200689390FED6F0E4F508F5098F037C00C3E5089BE5099C500FAB08AC0974012BF591
:2001020008E43CF50980E40DBD200040D00E80C6D2B4E4F50AF50BF50CF50DC3E50A9498BB
:20012200E50B943AE50C9400E50D9400501BAC0AAD0BAE0CAF0D74012CF50AE43DF50BE400
:200142003EF50CE43FF50D80D2900001E02401F0E0FFBF2A0050030200CB900001E4F00212
:0201620000CBD0
:200168002024282C2F323537383735322F2C2824201C1814110E0B0908090B0E1114181C77
:200188003C3C35352F2F353C3C2A2A2525213C3C35352A2A253C3C352A252521213C3C3540
:0A01A800352F2F353C3C2A2A25256F
:06003500E478FFF6D8FD9F
:200013007900E94400601B7A009001B2780275A000E493F2A308B8000205A0D9F4DAF275DF
:02003300A0FF2C
:20003B007800E84400600A790175A000E4F309D8FC7801E84400600C7901900001E4F0A3C1
:04005B00D8FCD9FAFA
:0D00060075810D120164E5826003020003A4
:04016400758200227E
:00000001FF
