:03000000020006F5
:03005F0002000399
:0300030002008177
:20006200AE82AF838F0590FED2EDF08E05A3EDF0EFC313CE13CEFDA3A3EDF0A3EEF022748D
:20008200EF55B24410F5B253B1EF74FE55964401F5965395FE900001E4F043BA8090FEB146
:2000A200E4F090FECCF0A3F090FEC87468F090FECC7405F090FED0E4F0A37417F090FEB218
:2000C200E0FF74FC5F4401F09001A9E493FEA3E493FF900002EEF0EFA3F08E828F8312004D
:2000E2006290FEB17401F090FEDD03F090FEC023F0D2AFC2B4E4F508F509F50AF50BC3E5BC
:20010200089430E5099475E50A9400E50B9400501BAC08AD09AE0AAF0B74012CF508E43D0D
:20012200F509E43EF50AE43FF50B80D2D2B4E4F50CF50DF50EF50FC3E50C9430E50D947542
:20014200E50E9400E50F9400501BAC0CAD0DAE0EAF0F74012CF50CE43DF50DE43EF50EE469
:200162003FF50F80D2900001E02401F0E0FFBF2A004005900001E4F0900001E075F002A474
:2001820024A9F582740135F0F583E493FEA3E493FF900002EEF0EFA3F08E828F83120062F1
:0301A2000200F563
:2001A9009804980417041704A503A503170498049804740574051F061F06DF0698049804CC
:2001C90017041704740574051F0698049804170474051F061F06DF06DF0698049804170496
:1401E9001704A503A503170498049804740574051F061F0608
:06003500E478FFF6D8FD9F
:200013007900E94400601B7A009001FD780475A000E493F2A308B8000205A0D9F4DAF27592
:02003300A0FF2C
:20003B007800E84400600A790175A000E4F309D8FC7803E84400600C7901900001E4F0A3BF
:04005B00D8FCD9FAFA
:0D00060075810F1201A5E582600302000361
:0401A500758200223D
:00000001FF
