:03000000020006F5
:03005F0002000399
:0300030002006296
:2000620074EF55B24410F5B253B1EF74FE55964401F5965395FE900001E4F043BA8090FEA3
:20008200B1E4F090FECCF0A3F090FEC87468F090FECC7405F090FED2E4F0A3743FF0A3A357
:2000A200E4F0A37420F090FED0E4F0A3F090FEB2E0FF74FC5F4401F015827401F090FEDDF4
:2000C20003F090FEC023F0D2AFC2B4900001E090024093FF7D007E008D828E83750E1E75CD
:2000E2000F00C007C006C0051201D6AB82AC83D005D006D0077411C39BFC24EF50027C1006
:20010200BC010050027C017B00EB90022093F97A008C0E8A0F89828A83C007C006C005C0D6
:2001220004C0031201FFA982AA83D003D004D005D006D007EAC4C9C4540F69C9540FC969FE
:20014200C990FED6E9F0E4F508F5098F017A00C3E50899E5099A500FA908AA09740129F587
:2001620008E43AF50980E40BBB2000409C0DBD00010E8D038E04C3EB94F4EC94015003022C
:2001820000DAD2B4E4F50AF50BF50CF50DC3E50A9498E50B943AE50C9400E50D9400501B05
:2001A200AC0AAD0BAE0CAF0D74012CF50AE43DF50BE43EF50CE43FF50D80D2900001E02469
:1401C20001F0E0FFBF2A0050030200CB900001E4F00200CB1E
:200220002024282C2F323537383735322F2C2824201C1814110E0B0908090B0E1114181CBE
:200240003C3C35352F2F353C3C2A2A2525213C3C35352A2A253C3C352A252521213C3C3587
:0A026000352F2F353C3C2A2A2525B6
:2001D6007A10E4FBFCE58225E0F582E58333F583EB33FBEC33FCEB950EF5F0EC950F400631
:0901F600FCABF0438201DADD22CA
:06003500E478FFF6D8FD9F
:200013007900E94400601B7A0090026A780275A000E493F2A308B8000205A0D9F4DAF27526
:02003300A0FF2C
:1D01FF00E582850EF0A4C582C0F0850FF0A4D0F025F0C583850EF0A42583F58322B0
:20003B007800E84400600A790175A000E4F309D8FC7801E84400600C7901900001E4F0A3C1
:04005B00D8FCD9FAFA
:0D00060075810F12021CE5826003020003E9
:04021C0075820022C5
:00000001FF
