:03000000020006F5
:03005F0002000399
:0300030002006296
:2000620074EF55B24410F5B253B1EF74FE55964401F5965395FE900001E4F043BA8090FEA3
:20008200B1E4F090FECCF0A3F090FEC87468F090FECC7405F090FED2E4F0A314F0A3A3E412
:2000A200F0A37480F090FED0E4F0A3F090FEB2E0FF74FC5F4401F015827401F090FEDD0375
:2000C200F090FEC023F0D2AFC2B4900001E090023F93FF7D007E008D828E83750E1E750FC2
:2000E20000C007C006C0051201D5AB82AC83D005D006D0077411C39BFC24EF50027C10BC5A
:20010200010050027C017B00EB90021F93F97A008C0E8A0F89828A83C007C006C005C0048F
:20012200C0031201FEA982AA83D003D004D005D006D007EAC4C9C4540F69C9540FC969C93A
:2001420090FED6E9F0E4F508F5098F017A00C3E50899E5099A500FA908AA09740129F50848
:20016200E43AF50980E40BBB2000409C0DBD00010E8D038E04C3EB94F4EC94015003020034
:20018200D9D2B4E4F50AF50BF50CF50DC3E50A9498E50B943AE50C9400E50D9400501BAC5A
:2001A2000AAD0BAE0CAF0D74012CF50AE43DF50BE43EF50CE43FF50D80D2900001E0240114
:1301C200F0E0FFBF2A0050030200CA900001E4F00200CA22
:20021F008090A0B0BCC8D4DCE0DCD4C8BCB0A0908070605044382C2420242C3844506070BF
:20023F003C3C35352F2F353C3C2A2A2525213C3C35352A2A253C3C352A252521213C3C3588
:0A025F00352F2F353C3C2A2A2525B7
:2001D5007A10E4FBFCE58225E0F582E58333F583EB33FBEC33FCEB950EF5F0EC950F400632
:0901F500FCABF0438201DADD22CB
:06003500E478FFF6D8FD9F
:200013007900E94400601B7A00900269780275A000E493F2A308B8000205A0D9F4DAF27527
:02003300A0FF2C
:1D01FE00E582850EF0A4C582C0F0850FF0A4D0F025F0C583850EF0A42583F58322B1
:20003B007800E84400600A790175A000E4F309D8FC7801E84400600C7901900001E4F0A3C1
:04005B00D8FCD9FAFA
:0D00060075810F12021BE5826003020003EA
:04021B0075820022C6
:00000001FF
