:040000000200A13227
:01000B0032C2
:0100130032BA
:01001B0032B2
:030023000200FDDB
:01002B0032A2
:01003300329A
:01003B003292
:01004300328A
:01004B003282
:01005300327A
:01005B003272
:01006300326A
:01006B003262
:01007300325A
:01007B003252
:01008300324A
:01008B003242
:01009300323A
:03009B0002017BE4
:0300FA0002009E63
:03009E000201C399
:2000FD00C020C0E0C0F0C082C083C007C006C005C004C003C002C001C000C0D075D000102D
:20011D00980280389000D4E0FF04F0EF24D5F582E43400F583E599F09000D4E0FFBF0200D8
:20013D00401A9000D5E0F5629000D6E0F56390000175F0001204059000D4E4F0109902809A
:20015D0000D0D0D000D001D002D003D004D005D006D007D083D082D0F0D0E0D02032C0202F
:20017D00C0E0C0F0C082C083C007C006C005C004C003C002C001C000C0D075D0009000010B
:20019D0075F000120734120296D0D0D000D001D002D003D004D005D006D007D083D082D035
:2001BD00F0D0E0D020329000D4E4F090C20075F00112091FE4F5217522C07523A8F52490FC
:1401DD000001F5F01202B590AC44E4F5F01201F1D2AF80FE13
:2001F100AC82AD8374FE55964401F5965395FE43BA8090FED0E4F0A3F053BA7F43BA8090A2
:20021100FED2E4F0A314F053BA7F43BA8090FEC8E0FB748F5B4460F053BA7F43BA8090FEBF
:20023100C8E054FCF053BA7F43BA8090FEB1E0FB74FE5B4401F053BA7F43BA8090FEDDE04C
:20025100FB747F5B4480F053BA7F43BA8090FEC0E054EFF053BA7F43BA8090FEC0E0549FFC
:20027100F053BA7F43BA8090FEC0E0FB74FE5B4401F053BA7F8C178D1875160075190175E6
:200291008201020B6DE582FF3395E0FE74802FFFE43EFE43BA808E0590FED5EDF0A3EFF030
:0402B10053BA7F229B
:2002B500AD82AE83AFF08D028E038F047562007563D37564008A828B838CF0C007C006C039
:2002D500051209A7D005D006D00774C82DFAE43EFB8F048A828B838CF07444120F20A37407
:2002F500AC120F20A3E4120F20A3120F20E524C313E52313E52213FAE52113F974CC2DFDC6
:20031500E43EFE8903EACB25E0CB33FC79007A008D828E838FF0E9120F20A3EA120F20A33B
:20033500EB120F20A3EC020F2085822585832685F0277C00EC75F028A4FB2525F8E43526B1
:20035500F9AA27888289838AF0E4120F20A3120F20A3120F20A3120F20EB2525F9E43526F0
:20037500FAAB27740429F8E43AFE8B0788828E838FF0E4120F20A3120F20740629FDE43AF4
:20039500FE8B078D828E838FF0E4120F20740729FDE43AFE8B078D828E838FF0E4120F20E1
:2003B500740829F9E43AFA75620075632075640089828A838BF0C0041209A7D0040CBC0510
:2003D50000500302034974D12525FDE43526FEAF278D828E838FF0E4120F2074D22525FD77
:2003F500E43526FEAF278D828E838FF0E4020F2085826485836585F066E562FC20E0030226
:20041500071EECC313FC24FA500122EC2C2C900427730204390205330206910206D20204EF
:200435003902070874D22564FAE43565FBAC668A828B838CF0120FC6FC74D12564F9E435B0
:2004550065FAAB6689828A838BF0120FC630E6012274D02564F9E43565FAAB6689828A83FD
:200475008BF0120FC66003020503BC6000404D74782564F9E43565FAAB66740829F9E43A3C
:20049500FA8C0053001F7F00E829F9EF3AFAAE6389828A838BF0EE120F2074A02564FAE455
:2004B5003565FBAD6674082AFAE43BFBE82AFAEF3BFB8A828B838DF0EE020F20ECC40354D7
:2004D5000775F028A42564FDE43565FEAF6674082DFDE43EFE8C0253021F7B00EA2DFDEB76
:2004F5003EFEAB638D828E838FF0EB020F20ECC403540775F028A42564FDE43565FEAF668C
:2005150074082DFDE43EFE53041F7B00EC2DFDEB3EFEAC638D828E838FF0EC020F2074D2C1
:200535002564FDE43565FEAF668D828E838FF0120FC6FFC313FEBE0500400122EF30E047CA
:20055500EE75F028A42564FCE43565FDAF6674042CFCE43DFD8C828D838FF0120FC6FAA373
:20057500120FC67B00A96353010F890088017800EA4200EB42018C828D838FF0E8120F20EB
:20059500A3E9120F208041EE75F028A42564FCE43565FDAF6674042CFCE43DFD8C828D83A8
:2005B5008FF0120FC6A3120FC6FB7A0053030FA8637900E84202E942038C828D838FF0EAF7
:2005D500120F20A3EB120F20EE75F028A4FF2564FCE43565FDAE668C828D838EF0120FC641
:2005F500A3120FC6A3120FC6FAA3120FC6FB780079008C828D838EF0E8120F20A3E9120FF0
:2006150020A3EA120F20A3EB120F2074D12564F9E43565FAAB6689828A838BF0120FC6300E
:20063500E5178C828D838EF074FF120F20A3120F20A3120F20A3020F20EF2564FDE43565CA
:20065500FEAF6674042DFAE43EFB8F048A828B838CF0120FC6FAA3120FC6FBC3EA9409EBF2
:2006750094004001228D828E838FF074FF120F20A3120F20A3120F20A3020F2074D22564B0
:20069500FDE43565FEAF668D828E838FF0120FC6FD74075DFFBF0500400122EF75F028A416
:2006B5002564FDE43565FEAF6674062DFDE43EFEE563540F8D828E838FF0020F207F00EF61
:2006D50075F028A42564FCE43565FDAE6674072CFCE43DFD8FF005F0E5638002C313D5F026
:2006F500FB54018C828D838EF0120F200FBF050040CD2274D12564FDE43565FEAF668D824B
:200715008E838FF0E563020F2074D22564FDE43565FEAF668D828E838FF0E563020F2085C1
:20073500822885832985F02AE4F52BF52C74CC2528F538E43529F539852A3A74C82528F574
:2007550035E43529F536852A37752D00E52D75F028A42528F52EE43529F52F852A307404EA
:20077500252EFBE4352FFCAD308B828C838DF0120FC6FBA3120FC6FCC374089BE49C400357
:200795000208E4853882853983853AF0120FC6F53BA3120FC6F53CA3120FC6F53DA3120FD5
:2007B500C6F53E0BBB00010C7E007F008535828536838537F0120FC6F562A3120FC6F56315
:2007D500A3120FC6F564A3120FC6F5658B828C838EF0EF120F5885826285836385F064F599
:2007F50065853B82853C83853DF0E53E12094285823185833285F033F534852E82852F8318
:200815008530F0120FC6FBA3120FC6FAA3120FC6FEA3120FC6FFE5312BFBE5323AFAE53308
:200835003EFEE5343FFF852E82852F838530F0EB120F20A3EA120F20A3EE120F20A3EF128F
:200855000F207407252EFDE4352FFEAF308D828E838FF0120FC66077852E82852F838530E6
:20087500F0120FC6A3120FC6A3120FC6FEA3120FC6FF8E048F0553041FE47408252EFAE4C4
:20089500352FE43530EC2AF9E7FF3395E0FE7406252EFBE4352FFCAD308B828C838DF01267
:2008B5000FC6FB8B627563008F828E83120F3BAE82E583C4CEC4540F6ECE540FCE6ECE30E6
:2008D500E30244F0FFEE252BF52BEF352CF52C052D74FB252D4003020761AB2BAC2CC37497
:2008F5007F9B74808CF063F08095F05006752B7F752C00C3E52B9480E52C6480947F5006A6
:0A091500752B80752CFF852B8222C4
:20091F0085824585834685F047F548754401758201020CB5020D173098047F0180027F003D
:03093F008F822282
:20094200FB7A20E4FCFDFEFFE5822582F582E58333F583E5F033F5F0EB33FB4017DAE980EE
:2009620042E5822582F582E58333F583E5F033F5F0EB33FBEC33FCED33FDEE33FEEF33FF1D
:20098200EC9562ED9563EE9564EF95654013EC9562FCED9563FDEE9564FEEF9565FF438217
:0509A20001DABEEB22AA
:0600D000E478FFF6D8FD04
:1F09A700AC82AD83AE63AF64BE0004EF600C1F0FE562120F20A3DEFADFF88C828D83224A
:2000AE007900E94400601B7A0090109778D775A000E493F2A308B8000205A0D9F4DAF2757B
:0200CE00A0FF91
:2009C600AE82AF837A007BC07CA87D00E5087006FA7B107C0EFD8E628F6375640075650055
:2009E6008A828B838CF0ED120942AC82AD83AEF0FFA809A90A7A007B00C3E89CE99DEA9E68
:200A0600EB9F500490000022AA09AB0AEAC39CF582EB9DF58322AF82747F558EFE8F05ED70
:200A26000354804EF58E74FC5589FEE50B4EF5897402B50B188F087509FF750A00850C820C
:200A4600850D831209C6AD828D8C8D8A228F087509FF750AFF850C82850D831209C6AE824E
:200A6600AF838F8C8E8A22AF8274BF558EFE8F05ED030354C04EF58E74CF5589FEE50EC462
:200A860054F04EF5897402B50E188F087509FF750A00850F828510831209C6AD828D8D8D77
:200AA6008B228F087509FF750A00850F828510831209C6AE82AF838F8D8E8B22AE82AF83C6
:200AC6007A007BC07CA87D00E5127006FA7B107C0EFDA811790008B8000109888289838EA1
:200AE600628F63C005C004C003C002120F3BAE82AF83D002D003D004D0058E628F637564C7
:200B0600007565008A828B838CF0ED120942AC82AD83AEF0FFC374FF9C74FF9DE49EE49F33
:200B260050049000002274FFC39CF58274FF9DF58322AF828513118F12851482851583C043
:200B460007120AC2AD82AE83D00774FB558EFCEF2F25E04CF58E43BA8090FEA2E513F0534B
:200B6600BA7F8ED68DD722AF828516118F12851782851883C007120AC2AD82AE83D0077440
:200B8600FD55D1FCEF2F4CF5D143BA8090FEA3E516F053BA7F8ED48DD574DF55AFFFE519C3
:200BA600C42354E04FF5AF22AF82851A118F12851B82851C83C007120AC2AD82AE83D0075B
:200BC60074DF55D1FCEFC42354E04CF5D143BA8090FEA4E51AF053BA7F8ED28DD374BF550C
:0C0BE600AFFFE51D030354C04FF5AF2224
:200BF200AC82AD83AEF0FFE5402540F562E54133F563E54233F564E54333F565E562256220
:200C1200F562E56333F563E56433F564E56533F5658C828D838EF0EF120942AC82AD83AEF8
:200C3200F0FFE53F701B75620CE4F563F564F5658C828D838EF0EF120942AC82AD83AEF04E
:200C5200FFC374FF9C74FF9DE49EE49F500490000022C3E49CF582E49DF58322AF8274FE1E
:200C7200558EFE8F05ED4EF58EEF701A74BF558EFFE562030354C04FF58E5389CF85648D4D
:200C920085638BD28E2274FB558EFFE56225E025E04FF58E8564D68563D774EF558E4410C1
:200CB200F58E22AF82C29FD29E85443F85454085464185474285484390C00075F0A8E4C03E
:200CD20007120BF2858263858364D0078544628F82020C6EAF82D29FD29E85493F854A4059
:200CF200854B41854C42854D4390C00075F0A8E4C007120BF2858263858364D007854962B5
:200D12008F82020C6E85829910990280FB22E582FFC4540F90108793F582C007120D17D0C1
:200D32000753070F7E00EF2487F582EE3410F583E493F582020D17AD82AE83AFF08D828E48
:200D5200838FF0120FC6FC60188C820DBD00010EC007C006C005120D17D005D006D00780B3
:200D7200DC22AE82AF838E9910990280FB8E828F8322AF828F3F854E40854F4185504285AD
:200D9200514390C00075F0A8E4C007120BF2AD82AE83D00774FB558EFCEF2F25E04CF58E1F
:200DB2008ED68DD774EF558E4410F58E2285829BE59A30E1FB539AFD22E582FFC4540F90C4
:200DD200108793F582C007120DBFD00753070F7E00EF2487F582EE3410F583E493F5820252
:200DF2000DBFAD82AE83AFF08D828E838FF0120FC6FC60188C820DBD00010EC007C006C0E8
:200E120005120DBFD005D006D00780DC22AF8253ACBF8F3F855240855341855442855543B8
:200E320090C00075F0A8E4C007120BF2AD82AE83D00774FB558EFCEF2F25E04CF58E8ED6AE
:200E52008DD774EF558E4410F58E22AF8274BF55AC4440F5AC8F3F8556408557418558422E
:200E720085594390C00075F0A8E4C007120BF2AD82AE83D00774FD55D1FCEF2F4CF5D18EA0
:200E9200D48DD574F755D14408F5D122AF825384BF8F3F855A40855B41855C42855D439098
:200EB200C00075F0A8E4C007120BF2AD82AE83D00774FB558EFCEF2F25E04CF58E8ED68D31
:200ED200D774EF558E4410F58E22AF8274BF55844440F5848F3F855E40855F4185604285EE
:200EF200614390C00075F0A8E4C007120BF2AD82AE83D00774DF55D1FCEFC42354E04CF52E
:0E0F1200D18ED28DD3747F55D14480F5D1227B
:1B0F200020F71130F6138883A88220F509F6A8837583002280FEF280F5F022D0
:1D0F3B00E5828562F0A4C582C0F08563F0A4D0F025F0C5838562F0A42583F583226A
:200F5800AAF0FBE5828562F0A4FCADF0E5838562F0A42DFDE435F0FEE5828563F0A42DFD48
:200F7800E5F03EFEE433FFEA8562F0A42EFEE5F03FFFE5838563F0A42EFEE5F03FFFE58204
:200F98008564F0A42EFEE5F03FFFEB8562F0A42FFFEA8563F0A42FFFE5838564F0A42FFF42
:0E0FB800E5828565F0A42F8EF08D838C822259
:2000D6007800E84400600A790175A000E4F309D8FC78D6E84400600C7901900001E4F0A351
:0400F600D8FCD9FA5F
:0D00A100758166121083E582600302009EE7
:1C0FC60020F71430F6148883A88220F507E6A88375830022E280F7E49322E0223A
:200FE200759850438E40538EFE53890F758B8F758DFDC2ABD28E22759850438E40538EFEED
:2010020053890F758BCC758DFFC2ABD28E22759850438E40538EFE53890F758BA0758DFC51
:20102200C2ABD28E22759850438E40538EFE53890F758BB8758DFFC2ABD28E22759850433F
:201042008E40538EFE53890F758B70758DFCC2ABD28E22759850438E40538EFE53890F75EC
:201062008B40758DFCC2ABD28E22759850438E40538EFE53890F758BB0758DFFC2ABD28E00
:01108200224B
:1010870030313233343536373839414243444546B7
:041083007582002250
:00000001FF
